{
  "contractName": "Purchase",
  "abi": [
    {
      "inputs": [],
      "stateMutability": "payable",
      "type": "constructor",
      "payable": true
    },
    {
      "inputs": [],
      "name": "InvalidState",
      "type": "error"
    },
    {
      "inputs": [],
      "name": "OnlyBuyer",
      "type": "error"
    },
    {
      "inputs": [],
      "name": "OnlySeller",
      "type": "error"
    },
    {
      "inputs": [],
      "name": "ValueNotEven",
      "type": "error"
    },
    {
      "anonymous": false,
      "inputs": [],
      "name": "Aborted",
      "type": "event"
    },
    {
      "anonymous": false,
      "inputs": [],
      "name": "ItemReceived",
      "type": "event"
    },
    {
      "anonymous": false,
      "inputs": [],
      "name": "PurchasedConfirmed",
      "type": "event"
    },
    {
      "anonymous": false,
      "inputs": [],
      "name": "SellerRefunded",
      "type": "event"
    },
    {
      "inputs": [],
      "name": "buyer",
      "outputs": [
        {
          "internalType": "address payable",
          "name": "",
          "type": "address"
        }
      ],
      "stateMutability": "view",
      "type": "function",
      "constant": true
    },
    {
      "inputs": [],
      "name": "seller",
      "outputs": [
        {
          "internalType": "address payable",
          "name": "",
          "type": "address"
        }
      ],
      "stateMutability": "view",
      "type": "function",
      "constant": true
    },
    {
      "inputs": [],
      "name": "state",
      "outputs": [
        {
          "internalType": "enum Purchase.State",
          "name": "",
          "type": "uint8"
        }
      ],
      "stateMutability": "view",
      "type": "function",
      "constant": true
    },
    {
      "inputs": [],
      "name": "total",
      "outputs": [
        {
          "internalType": "uint256",
          "name": "",
          "type": "uint256"
        }
      ],
      "stateMutability": "view",
      "type": "function",
      "constant": true
    },
    {
      "inputs": [],
      "name": "value",
      "outputs": [
        {
          "internalType": "uint256",
          "name": "",
          "type": "uint256"
        }
      ],
      "stateMutability": "view",
      "type": "function",
      "constant": true
    },
    {
      "inputs": [],
      "name": "abort",
      "outputs": [],
      "stateMutability": "nonpayable",
      "type": "function"
    },
    {
      "inputs": [],
      "name": "confirmPurchase",
      "outputs": [],
      "stateMutability": "payable",
      "type": "function",
      "payable": true
    },
    {
      "inputs": [],
      "name": "confirmReceived",
      "outputs": [],
      "stateMutability": "nonpayable",
      "type": "function"
    },
    {
      "inputs": [],
      "name": "refundSeller",
      "outputs": [],
      "stateMutability": "nonpayable",
      "type": "function"
    }
  ],
  "bytecode": "0x608060405233600260006101000a81548173ffffffffffffffffffffffffffffffffffffffff021916908373ffffffffffffffffffffffffffffffffffffffff1602179055506002346100529190610113565b6000819055503460018190555034600054600261006f9190610144565b146100a6576040517fbe3e4c4200000000000000000000000000000000000000000000000000000000815260040160405180910390fd5b61019e565b6000819050919050565b7f4e487b7100000000000000000000000000000000000000000000000000000000600052601260045260246000fd5b7f4e487b7100000000000000000000000000000000000000000000000000000000600052601160045260246000fd5b600061011e826100ab565b9150610129836100ab565b925082610139576101386100b5565b5b828204905092915050565b600061014f826100ab565b915061015a836100ab565b9250817fffffffffffffffffffffffffffffffffffffffffffffffffffffffffffffffff0483118215151615610193576101926100e4565b5b828202905092915050565b610a58806101ad6000396000f3fe6080604052600436106100865760003560e01c80637150d8ae116100595780637150d8ae1461012357806373fac6f01461014e578063c19d93fb14610165578063c7981b1b14610190578063d6960697146101a757610086565b806308551a531461008b5780632ddbd13a146100b657806335a063b4146100e15780633fa4f245146100f8575b600080fd5b34801561009757600080fd5b506100a06101b1565b6040516100ad91906108b8565b60405180910390f35b3480156100c257600080fd5b506100cb6101d7565b6040516100d891906108ec565b60405180910390f35b3480156100ed57600080fd5b506100f66101dd565b005b34801561010457600080fd5b5061010d610394565b60405161011a91906108ec565b60405180910390f35b34801561012f57600080fd5b5061013861039a565b60405161014591906108b8565b60405180910390f35b34801561015a57600080fd5b506101636103c0565b005b34801561017157600080fd5b5061017a61057a565b604051610187919061097e565b60405180910390f35b34801561019c57600080fd5b506101a561058d565b005b6101af610752565b005b600260009054906101000a900473ffffffffffffffffffffffffffffffffffffffff1681565b60015481565b600260009054906101000a900473ffffffffffffffffffffffffffffffffffffffff1673ffffffffffffffffffffffffffffffffffffffff163373ffffffffffffffffffffffffffffffffffffffff1614610264576040517f85d1f72600000000000000000000000000000000000000000000000000000000815260040160405180910390fd5b600080600381111561027957610278610907565b5b600360149054906101000a900460ff16600381111561029b5761029a610907565b5b146102d2576040517fbaf3f0f700000000000000000000000000000000000000000000000000000000815260040160405180910390fd5b7f72c874aeff0b183a56e2b79c71b46e1aed4dee5e09862134b8821ba2fddbf8bf60405160405180910390a160038060146101000a81548160ff0219169083600381111561032357610322610907565b5b0217905550600260009054906101000a900473ffffffffffffffffffffffffffffffffffffffff1673ffffffffffffffffffffffffffffffffffffffff166108fc479081150290604051600060405180830381858888f19350505050158015610390573d6000803e3d6000fd5b5050565b60005481565b600360009054906101000a900473ffffffffffffffffffffffffffffffffffffffff1681565b600360009054906101000a900473ffffffffffffffffffffffffffffffffffffffff1673ffffffffffffffffffffffffffffffffffffffff163373ffffffffffffffffffffffffffffffffffffffff1614610447576040517f86efbb5500000000000000000000000000000000000000000000000000000000815260040160405180910390fd5b600180600381111561045c5761045b610907565b5b600360149054906101000a900460ff16600381111561047e5761047d610907565b5b146104b5576040517fbaf3f0f700000000000000000000000000000000000000000000000000000000815260040160405180910390fd5b7fe89152acd703c9d8c7d28829d443260b411454d45394e7995815140c8cbcbcf760405160405180910390a16002600360146101000a81548160ff0219169083600381111561050757610506610907565b5b0217905550600360009054906101000a900473ffffffffffffffffffffffffffffffffffffffff1673ffffffffffffffffffffffffffffffffffffffff166108fc6000549081150290604051600060405180830381858888f19350505050158015610576573d6000803e3d6000fd5b5050565b600360149054906101000a900460ff1681565b600260009054906101000a900473ffffffffffffffffffffffffffffffffffffffff1673ffffffffffffffffffffffffffffffffffffffff163373ffffffffffffffffffffffffffffffffffffffff1614610614576040517f85d1f72600000000000000000000000000000000000000000000000000000000815260040160405180910390fd5b600280600381111561062957610628610907565b5b600360149054906101000a900460ff16600381111561064b5761064a610907565b5b14610682576040517fbaf3f0f700000000000000000000000000000000000000000000000000000000815260040160405180910390fd5b7ffda69c32bcfdba840a167777906b173b607eb8b4d8853b97a80d26e613d858db60405160405180910390a160038060146101000a81548160ff021916908360038111156106d3576106d2610907565b5b0217905550600260009054906101000a900473ffffffffffffffffffffffffffffffffffffffff1673ffffffffffffffffffffffffffffffffffffffff166108fc600054600361072391906109c8565b9081150290604051600060405180830381858888f1935050505015801561074e573d6000803e3d6000fd5b5050565b600080600381111561076757610766610907565b5b600360149054906101000a900460ff16600381111561078957610788610907565b5b146107c0576040517fbaf3f0f700000000000000000000000000000000000000000000000000000000815260040160405180910390fd5b60005460026107cf91906109c8565b3414806107db57600080fd5b7f901a66baa1f2b99d5679a29d8eda3fca5305d2b439a1518d37ca6e559476816c60405160405180910390a133600360006101000a81548173ffffffffffffffffffffffffffffffffffffffff021916908373ffffffffffffffffffffffffffffffffffffffff1602179055506001600360146101000a81548160ff0219169083600381111561086e5761086d610907565b5b02179055505050565b600073ffffffffffffffffffffffffffffffffffffffff82169050919050565b60006108a282610877565b9050919050565b6108b281610897565b82525050565b60006020820190506108cd60008301846108a9565b92915050565b6000819050919050565b6108e6816108d3565b82525050565b600060208201905061090160008301846108dd565b92915050565b7f4e487b7100000000000000000000000000000000000000000000000000000000600052602160045260246000fd5b6004811061094757610946610907565b5b50565b600081905061095882610936565b919050565b60006109688261094a565b9050919050565b6109788161095d565b82525050565b6000602082019050610993600083018461096f565b92915050565b7f4e487b7100000000000000000000000000000000000000000000000000000000600052601160045260246000fd5b60006109d3826108d3565b91506109de836108d3565b9250817fffffffffffffffffffffffffffffffffffffffffffffffffffffffffffffffff0483118215151615610a1757610a16610999565b5b82820290509291505056fea2646970667358221220bd33100de4d20cfc71c7c008a8da73e935afcc903404a6b3d4a1c2261179085f64736f6c634300080a0033",
  "immutableReferences": {},
  "source": "// SPDX-License-Identifier: GPL-3.0\npragma solidity ^0.8.4;\n\ncontract Purchase {\n    uint public value;\n    uint public total;\n    address payable public seller;\n    address payable public buyer;\n\n    enum State { Created, Locked, Release, Inactive }\n    // The state variable has a default value of the first member, `State.created`\n    State public state;\n\n    modifier condition(bool condition_) {\n        require(condition_);\n        _;\n    }\n\n    /// Only the buyer can call this function\n    error OnlyBuyer();\n    /// Only the r seller can call this function\n    error OnlySeller();\n    /// The function cannot be called at the current state\n    error InvalidState();\n    /// The provided value has to be even\n    error ValueNotEven();\n\n    modifier onlyBuyer() {\n        if (msg.sender != buyer)\n            revert OnlyBuyer();\n        _;\n    }\n\n    modifier onlySeller() {\n        if (msg.sender != seller)\n            revert OnlySeller();\n        _;\n    }\n\n    modifier inState(State state_) {\n        if (state != state_)\n            revert InvalidState();\n        _;\n    }\n\n    event Aborted();\n    event PurchasedConfirmed();\n    event ItemReceived();\n    event SellerRefunded();\n\n    // Ensure that `msg.value` is an even number.\n    // Division will truncate if it is an odd number.\n    // Check via multiplication that it wasn't an odd number.\n    constructor() payable {\n        seller = payable(msg.sender);\n        value = msg.value / 2;\n        total = msg.value;\n        if ((2 * value) != msg.value)\n            revert ValueNotEven();\n    }\n\n    /// Abort the purchase and reclaim the ether.\n    /// Can only be called by the seller before\n    /// the contract is locked.\n    function abort()\n        external\n        onlySeller\n        inState(State.Created)\n    {\n        emit Aborted();\n        state = State.Inactive;\n        // We use transfer here directly. It is\n        // reentrancy-sage, because it is the\n        // last call in this function and we\n        // already changed the state\n        seller.transfer(address(this).balance);\n    }\n\n    /// Confirm the purchase as buyer.\n    /// Transaction has to include `2 * value` ether.\n    /// The ehter will be locked until confirmReceived\n    /// is called.\n    function confirmPurchase()\n        external\n        inState(State.Created)\n        condition(msg.value == (2 * value))\n        payable\n    {\n        emit PurchasedConfirmed();\n        buyer = payable(msg.sender);\n        state = State.Locked;\n    }\n\n    /// Confirm that you (they buyer) recieved the item\n    /// This will release the locked ether\n    function confirmReceived()\n        external\n        onlyBuyer\n        inState(State.Locked)\n    {\n        emit ItemReceived();\n        // It is important to change the state first because\n        // otherwise, the contracts called using `send` below\n        // can call in again here.\n        state = State.Release;\n\n        buyer.transfer(value);\n    }\n\n    /// This function refunds the seller, i.e.\n    /// pays back the locked funds of the seller.\n    function refundSeller()\n        external\n        onlySeller\n        inState(State.Release)\n    {\n        emit SellerRefunded();\n        // It is important to change the state first because \n        // otherwise, the contracts called using `send` below \n        // can call in again here.\n        state = State.Inactive;\n        seller.transfer(3 * value);\n    }\n}",
  "sourcePath": "/Users/matthewcroft/Web3Workspace/SolidityDocumentation/contracts/Purchase.sol",
  "compiler": {
    "name": "solc",
    "version": "0.8.10+commit.fc410830.Emscripten.clang"
  },
  "schemaVersion": "3.4.4",
  "updatedAt": "2022-02-18T18:04:48.084Z",
  "networkType": "ethereum",
  "devdoc": {
    "kind": "dev",
    "methods": {},
    "version": 1
  },
  "userdoc": {
    "errors": {
      "InvalidState()": [
        {
          "notice": "The function cannot be called at the current state"
        }
      ],
      "OnlyBuyer()": [
        {
          "notice": "Only the buyer can call this function"
        }
      ],
      "OnlySeller()": [
        {
          "notice": "Only the r seller can call this function"
        }
      ],
      "ValueNotEven()": [
        {
          "notice": "The provided value has to be even"
        }
      ]
    },
    "kind": "user",
    "methods": {
      "abort()": {
        "notice": "Abort the purchase and reclaim the ether. Can only be called by the seller before the contract is locked."
      },
      "confirmPurchase()": {
        "notice": "Confirm the purchase as buyer. Transaction has to include `2 * value` ether. The ehter will be locked until confirmReceived is called."
      },
      "confirmReceived()": {
        "notice": "Confirm that you (they buyer) recieved the item This will release the locked ether"
      },
      "refundSeller()": {
        "notice": "This function refunds the seller, i.e. pays back the locked funds of the seller."
      }
    },
    "version": 1
  }
}